:020000040800F2
:10000000000001205903000861030008690300088B
:10001000F1030008F90300084D0400080000000087
:10002000000000000000000000000000A104000823
:10003000A904000800000000B1040008A54C000855
:100040002D3D00082D3D00082D3D00082D3D0008E8
:100050002D3D00082D3D00082D3D00082D3D0008D8
:100060002D3D00082D3D0008B54C00082D3D000831
:100070002D3D00082D3D00082D3D00082D3D0008B8
:100080002D3D00082D3D00082D3D00082D3D0008A8
:100090002D3D00082D3D00082D3D0008C34C0008F3
:1000A0002D3D00082D3D00082D3D00082D3D000888
:1000B0002D3D00082D3D00082D3D00082D3D000878
:1000C0002D3D00082D3D00082D3D00082D3D000868
:1000D0002D3D00082D3D00082D3D00082D3D000858
:1000E000D34C00082D3D00082D3D00082D3D000893
:1000F0002D3D00082D3D00082D3D00082D3D000838
:100100002D3D000800000000000000002D3D00080B
:100110002D3D00082D3D00082D3D00082D3D000817
:100120002D3D00082D3D00082D3D00082D3D000807
:100130002D3D00082D3D00080000000000000000DB
:100140002D3D00082D3D00082D3D00080000000059
:10015000000000000000000000000000000000009F
:100160002D3D00082D3D00082D3D00082D3D0008C7
:100170002D3D00082D3D00082D3D00082D3D0008B7
:100180002D3D00082D3D000800000000000000008B
:100190002D3D000880B596B000AF03F0F5FC5D4B37
:1001A0005D4A1A605D4B5C4A1A605D4B7B6523E0DB
:1001B0007B6D1A1D7A651B68FB647B6D1A1D7A6561
:1001C0001B68BB647B6D1A1D7A651B687B64FB6CC6
:1001D0007B63BB6C3B637B6CFB623B6BBB6207E08E
:1001E000BB6A1A1DBA627A6B111D796312681A60B4
:1001F000FA6ABB6A9A42F3D87B6D4A4A9342D7D3D4
:10020000444B1B68484A934204D1444B1B68474AFD
:10021000934200D0FEE7464B3F4A1A60454B3E4AA8
:100220001A60454B3B6519E03B6D1A1D3A651B682A
:100230003B643B6D1A1D3A651B68FB633B6C7B623C
:10024000FB6B3B627B6AFB6104E0FB691A1DFA6190
:1002500000221A603A6AFB699A42F6D83B6D374A27
:100260009342E1D3324B1B68002B03D1314B1B6807
:10027000002B00D0FEE703F095FC3A1D07F10803C0
:100280001146184603F0EAFB2D4A2E4BD31A9B1059
:100290003B610023FB6007E02A4AFB6852F82330E9
:1002A0009847FB680133FB603A69FB689A42F3DCCC
:1002B000254A264BD31A9B103B610023FB6007E0C5
:1002C000224AFB6852F823309847FB680133FB60F1
:1002D0003A69FB689A42F3DCBB687A6811461846B3
:1002E00003F0D4FDB8631A4A1A4BD31A9B10BB61B2
:1002F000BB697B6108E07B69013B164A52F82330F9
:1003000098477B69013B7B617B69002BF3DCB86B11
:1003100003F06AFB00000020BABADECAF001002038
:10032000D0040008E8040008785634123254769855
:10033000F4010020E4060020E8040008F8040008A6
:10034000F8040008F8040008F8040008F80400089D
:10035000F8040008F804000880B500AFFFF71AFFA2
:1003600080B400AF00BEFEE71EF0040F0CBFEFF339
:100370000880EFF309807146524A104700BF80B5EC
:1003800088B002AF78603960174B5B6B7B61164BAE
:100390009B6B3B61144B9B6AFB60134B1B6B03F025
:1003A0000203002B10D0104BDB6A002B0CDA4BF64B
:1003B000AB61786803F092FC0346002B04D00A4B33
:1003C0004FF00042DA620CE0084803F059FB3B684A
:1003D00000933B697A69F968786803F0E9FB00BE2D
:1003E000FEE71837BD4680BD00ED00E0B07D000897
:1003F00080B400AF00BEFEE71EF0040F0CBFEFF3A9
:100400000880EFF3098071462F4A104700BF80B57E
:1004100088B002AF786039600A4B5B6B7B61094B37
:100420009B6B3B61074B9B6AFB60074803F028FB13
:100430003B6800933B697A69F968786803F0B8FB18
:1004400000BEFEE700ED00E0C07D00081EF0040FD6
:100450000CBFEFF30880EFF3098071461B4A104789
:1004600000BF80B588B002AF786039600A4B5B6B23
:100470007B61094B9B6B3B61074B9B6AFB600748A9
:1004800003F0FEFA3B6800933B697A69F968786883
:1004900003F08EFB00BEFEE700ED00E0CC7D00081F
:1004A00080B400AF00BEFEE780B400AF00BEFEE740
:1004B00080B400AF00BEFEE780B400AF00BFBD4611
:1004C00080BC70477F0300080F0400086304000825
:1004D0008095000800000020F401002080950008AD
:1004E0000000001000000010F4010020E8060020C9
:0804F0000000001000000010E4
:1005000080B500AF084A084B1B6843F01003136026
:10051000032000F023F9002000F008F804F050FB5D
:100520000023184680BD00BF0020024080B582B085
:1005300000AF7860094B1B68094AA2FB03239B09A3
:10054000184600F06FF9002279684FF0FF3000F094
:1005500025F9002318460837BD4680BD0C00002051
:10056000D34D621080B400AF044B1B680133034AC3
:10057000136000BFBD4680BC704700BF90060020DE
:1005800080B400AF024B1B681846BD4680BC704764
:100590009006002080B584B000AF7860FFF7F0FFD0
:1005A000B8607B68FB60FB68B3F1FF3F02D0FB687B
:1005B0000133FB6000BFFFF7E3FF0246BB68D21ABE
:1005C000FB689A42F7D300BF1037BD4680BD0000DC
:1005D00080B485B000AF78607B6803F00703FB60F0
:1005E0000C4BDB68BB60BA684FF6FF031340BB607F
:1005F000FB681A02BB68134343F0BF6343F4003344
:10060000BB60044ABB68D36000BF1437BD4680BCE2
:10061000704700BF00ED00E080B400AF044BDB6822
:100620001B0A03F007031846BD4680BC704700BF95
:1006300000ED00E080B483B000AF0346FB710849D1
:1006400097F907305B09FA7902F01F02012000FADE
:1006500002F241F8232000BF0C37BD4680BC704732
:1006600000E100E080B483B000AF03463960FB7165
:1006700097F90730002B0BDA0D49FB7903F00F03D4
:10068000043B3A68D2B21201D2B20B441A7609E0A6
:10069000084997F907303A68D2B21201D2B20B4436
:1006A00083F8002300BF0C37BD4680BC704700BFF5
:1006B00000ED00E000E100E080B489B000AFF86038
:1006C000B9607A60FB6803F00703FB61FB69C3F163
:1006D0000703042B28BF0423BB61FB690433062BEB
:1006E00002D9FB69033B00E000237B610122BB6967
:1006F00002FA03F35A1EBB681A407B699A40012133
:100700007B6901FA03F3591E7B680B4013431846BB
:100710002437BD4680BC704780B582B000AF78609A
:100720007B68013BB3F1807F01D301230FE00A4ACC
:100730007B68013B53600F214FF0FF30FFF792FFC2
:10074000054B00229A60044B07221A6000231846CA
:100750000837BD4680BD00BF10E000E080B582B024
:1007600000AF78607B68072B0FD07B68062B0CD01E
:100770007B68052B09D07B68042B06D07B68032B94
:1007800003D0BC21044804F015F87868FFF720FF77
:1007900000BF0837BD4680BD3C7B000880B586B0F1
:1007A00000AF0346B9607A60FB7300237B617B680E
:1007B0000F2B03D9D4210E4803F0FCFFBB680F2B8D
:1007C00003D9D5210A4803F0F5FFFFF725FF78612B
:1007D0007A68B9687869FFF76FFF024697F90F30BA
:1007E00011461846FFF73EFF00BF1837BD4680BDD3
:1007F0003C7B000880B582B000AF0346FB7197F9DF
:100800000730002B03DAE821054803F0D3FF97F9FE
:1008100007301846FFF70EFF00BF0837BD4680BD02
:100820003C7B000880B582B000AF78607868FFF745
:1008300073FF034618460837BD4680BD80B582B0B9
:1008400000AF78607B68042B07D07B68002B04D056
:1008500040F2E1110B4803F0ADFF7B68042B06D199
:10086000094A094B1B6843F00403136005E0064A7C
:10087000054B1B6823F00403136000BF0837BD4617
:1008800080BD00BF3C7B000810E000E080B500AFF9
:1008900000F002F800BF80BD80B400AF00BFBD46CD
:1008A00080BC704780B586B000AF786039600023A7
:1008B0007B610023FB6000233B617B68B3F1904FB9
:1008C0001FD07B683D4A93421BD07B683C4A9342D1
:1008D00017D07B683B4A934213D07B683A4A9342D5
:1008E0000FD07B68394A93420BD07B68384A9342D9
:1008F00007D07B68374A934203D0C321364803F0C0
:1009000059FF3B681B689BB2002B05D03B681B68F6
:100910001B0C1B04002B03D0C4212F4803F04AFFFB
:100920003B685B68002B35D03B685B68012B31D09E
:100930003B685B68112B2DD03B685B68022B29D08C
:100940003B685B68122B25D03B685B68234A934267
:1009500020D03B685B68224A93421BD03B685B68AF
:10096000204A934216D03B685B681F4A934211D0DD
:100970003B685B681D4A93420CD03B685B681C4A2D
:10098000934207D03B685B68032B03D0C521124814
:1009900003F010FF3B689B68002B00F0E4813B688C
:1009A0009B68012B00F0DF813B689B68022B00F005
:1009B000DA81C621084803F0FDFED4E100040048B6
:1009C00000080048000C00480010004800140048CF
:1009D00000180048001C00486C7B00080000111043
:1009E0000000211000003110000012100000221041
:1009F000000032103B681A6801217B6901FA03F399
:100A00001340FB60FB68002B00F0AA813B685B6829
:100A1000022B03D03B685B68122B57D17B68B3F184
:100A2000904F1FD07B68924A93421BD07B68914ABB
:100A3000934217D07B68904A934213D07B688F4AC9
:100A400093420FD07B688E4A93420BD07B688D4ACD
:100A5000934207D07B688C4A934203D0D5218B48C0
:100A600003F0A8FE3B681B690C2B0BD93B681B6984
:100A70000E2B07D03B681B690F2B03D0D621834870
:100A800003F098FE7B69DA087B68083253F822305D
:100A90003B617B6903F007039B000F2202FA03F31B
:100AA000DB433A6913403B613B681A697B6903F099
:100AB00007039B0002FA03F33A6913433B617B6926
:100AC000DA087B680832396943F822107B681B68B2
:100AD0003B617B695B00032202FA03F3DB433A6963
:100AE00013403B613B685B6803F003027B695B007A
:100AF00002FA03F33A6913433B617B683A691A606F
:100B00003B685B68012B0BD03B685B68022B07D00E
:100B10003B685B68112B03D03B685B68122B40D1AC
:100B20003B68DB68002B0BD03B68DB68012B07D0F0
:100B30003B68DB68032B03D0EA21544803F03AFEFC
:100B40007B689B683B617B695B00032202FA03F3CD
:100B5000DB433A6913403B613B68DA687B695B00C1
:100B600002FA03F33A6913433B617B683A699A607E
:100B70007B685B683B6101227B6902FA03F3DB431C
:100B80003A6913403B613B685B681B0903F0010253
:100B90007B6902FA03F33A6913433B617B683A6964
:100BA0005A607B68DB683B617B695B00032202FA69
:100BB00003F3DB433A6913403B613B689A687B6906
:100BC0005B0002FA03F33A6913433B617B683A69BD
:100BD000DA603B685B6803F08053002B00F0C08054
:100BE0002B4A2B4B9B6943F001039361284B9B6974
:100BF00003F00103BB60BB68264A7B699B08023394
:100C000052F823303B617B6903F003039B000F2202
:100C100002FA03F3DB433A6913403B617B68B3F1AB
:100C2000904F39D07B68124A93421FD07B68114A9B
:100C3000934219D07B68104A934213D07B680F4AC5
:100C400093420DD07B680E4A934207D07B680D4AD1
:100C5000934201D1062320E007231EE005231CE078
:100C600004231AE0032318E0022316E0012314E012
:100C70000004004800080048000C0048001000482C
:100C80000014004800180048001C00486C7B000855
:100C9000001002400000014000237A6902F00302C4
:100CA000920093403A6913433B6135497B699B0845
:100CB00002333A6941F82320324B1B683B61FB68E1
:100CC000DB433A6913403B613B685B6803F4803364
:100CD000002B03D03A69FB6813433B61294A3B6907
:100CE0001360284B5B683B61FB68DB433A69134048
:100CF0003B613B685B6803F40033002B03D03A6927
:100D0000FB6813433B611F4A3B6953601D4B9B6863
:100D10003B61FB68DB433A6913403B613B685B68BE
:100D200003F48013002B03D03A69FB6813433B6143
:100D3000144A3B699360134BDB683B61FB68DB4300
:100D40003A6913403B613B685B6803F40013002B76
:100D500003D03A69FB6813433B610A4A3B69D3609D
:100D60007B6901337B613B681A687B6922FA03F374
:100D7000002B7FF43FAE00BF1837BD4680BD00BFDB
:100D8000000001400004014080B582B000AF7860EF
:100D90000B467B8013467B707B88002B04D07B88BE
:100DA0001B0C1B04002B04D04FF4D8710D4803F02A
:100DB00001FD7B78002B07D07B78012B04D040F21B
:100DC000B111084803F0F6FC7B78002B03D07A8839
:100DD0007B689A6102E07A887B689A6200BF083774
:100DE000BD4680BD6C7B000880B582B000AF7860E6
:100DF0000B467B807B88002B04D07B881B0C1B045C
:100E0000002B04D04FF4E371064803F0D3FC7B6859
:100E10005A697B885A407B685A6100BF0837BD46D3
:100E200080BD00BF6C7B000880B582B000AF034678
:100E3000FB80084B5A69FB881340002B06D0054AFB
:100E4000FB885361FB88184603F086FC00BF083717
:100E5000BD4680BD0004014080B582B000AF78601F
:100E60007B68002B01D1012303E17B681B68834A67
:100E700093420ED07B681B68814A934209D07B68FD
:100E80001B68804A934204D040F29D117E4803F0D3
:100E900091FC7B689B68B3F5806F04D34FF4CF71EE
:100EA000794803F087FC7B68DB68012B08D07B68FE
:100EB000DB68022B04D040F29F11734803F07AFCE8
:100EC0007B681B69002B09D07B681B69B3F5004F59
:100ED00004D04FF4D0716C4803F06CFC7B685B6904
:100EE000FF2B04D940F2A111674803F063FC7B6833
:100EF0009B69002B20D07B689B69012B1CD07B68F1
:100F00009B69022B18D07B689B69032B14D07B68EC
:100F10009B69042B10D07B689B69052B0CD07B68E8
:100F20009B69062B08D07B689B69072B04D04FF484
:100F3000D171554803F03EFC7B68DB69002B09D07A
:100F40007B68DB69B3F5002F04D040F2A3114E4853
:100F500003F030FC7B681B6A002B09D07B681B6A9E
:100F6000B3F5003F04D04FF4D271474803F022FCA0
:100F70007B6893F84130DBB2002B06D17B680022FE
:100F800083F84020786803F05DFE7B68242283F8B4
:100F900041207B681B687A681268126822F001029F
:100FA0001A607B681B687A68526822F070621A6166
:100FB0007B681B687A681268926822F400429A6023
:100FC0007B68DB68012B07D17B681B687A689268B5
:100FD00042F400429A6006E07B681B687A68926877
:100FE00042F404429A607B68DB68022B04D17B6880
:100FF0001B684FF400625A607B681A687B681B6844
:101000005B6843F0007343F4004353607B681B68E4
:101010007A681268D26822F40042DA607B681B6842
:101020007A6811697A68526911437A689269120282
:101030000A43DA607B681B687A68D1697A68126A49
:101040000A431A607B681B687A681268126842F06B
:1010500001021A607B6800225A647B68202283F8B0
:1010600041207B6800221A637B68002283F84220BB
:10107000002318460837BD4680BD00BF005400401D
:1010800000580040007800409C7B000880B588B084
:1010900002AFF860084611461A4603467B810B46AC
:1010A0003B811346FB8000237B61FB88012B07D02B
:1010B000FB88022B04D04FF4D9618C4803F07AFBF3
:1010C000FB6893F84130DBB2202B40F009813B6A8A
:1010D000002B02D0BB8C002B01D1012301E1FB6866
:1010E00093F84030012B01D10223FAE0FB68012282
:1010F00083F84020FFF744FA78617B690093192355
:1011000001224FF40041F86800F008FB0346002B71
:1011100001D00323E5E0FB68212283F84120FB682E
:10112000402283F84220FB6800225A64FB683A6A36
:101130005A62FB68BA8C5A85FB6800225A63F888A9
:101140003A8979897B690193BB6A00930346F86801
:1011500000F004FA0346002B0FD0FB685B6C042BF5
:1011600005D1FB68002283F840200123B9E0FB6829
:10117000002283F840200323B3E0FB685B8D9BB221
:10118000FF2B0ED9FB68FF221A85FB681B8DDAB294
:101190007989002300934FF08073F86800F0D2FB48
:1011A0000FE0FB685B8D9AB2FB681A85FB681B8DAC
:1011B000DAB27989002300934FF00073F86800F0E9
:1011C000C1FB7A69B96AF86800F0E2FA0346002BBD
:1011D00007D0FB685B6C042B01D1012381E0032362
:1011E0007FE0FB681A68FB685B6A581CF968486214
:1011F0001B789362FB685B8D9BB2013B9AB2FB68E4
:101200005A85FB681B8D013B9AB2FB681A85FB6807
:101210001B8D002B35D1FB685B8D9BB2002B30D032
:101220007B690093BB6A00228021F86800F076FA9F
:101230000346002B01D0032353E0FB685B8D9BB278
:10124000FF2B0ED9FB68FF221A85FB681B8DDAB2D3
:101250007989002300934FF08073F86800F072FBE7
:101260000FE0FB685B8D9AB2FB681A85FB681B8DEB
:10127000DAB27989002300934FF00073F86800F028
:1012800061FBFB685B8D9BB2002B9AD17A69B96ACE
:10129000F86800F0BDFA0346002B07D0FB685B6CD2
:1012A000042B01D101231CE003231AE0FB681B6817
:1012B0002022DA61FB681A68FB681B6859680C4BCE
:1012C0000B405360FB68202283F84120FB6800221A
:1012D00083F84220FB68002283F84020002300E0CE
:1012E000022318461837BD4680BD00BF9C7B00080E
:1012F00000E800FE80B588B002AFF86008461146ED
:101300001A4603467B810B463B811346FB80002334
:101310007B61FB88012B07D0FB88022B04D040F2B5
:1013200061718C4803F046FAFB6893F84130DBB2F8
:10133000202B40F009813B6A002B02D0BB8C002B94
:1013400001D1012301E1FB6893F84030012B01D169
:101350000223FAE0FB68012283F84020FFF710F92E
:1013600078617B690093192301224FF40041F868EA
:1013700000F0D4F90346002B01D00323E5E0FB681D
:10138000222283F84120FB68402283F84220FB6838
:1013900000225A64FB683A6A5A62FB68BA8C5A8522
:1013A000FB6800225A63F8883A8979897B6901933E
:1013B000BB6A00930346F86800F02FF90346002B40
:1013C0000FD0FB685B6C042B05D1FB68002283F80F
:1013D00040200123B9E0FB68002283F8402003236A
:1013E000B3E0FB685B8D9BB2FF2B0FD9FB68FF223C
:1013F0001A85FB681B8DDAB279894FF4105300937C
:101400004FF08073F86800F09DFA10E0FB685B8D88
:101410009AB2FB681A85FB681B8DDAB279894FF4A2
:10142000105300934FF00073F86800F08BFA7B695B
:101430000093BB6A00220421F86800F06FF90346AC
:10144000002B01D0032380E0FB685B6A591CFA681B
:101450005162FA681268526AD2B21A70FB681B8D28
:10146000013B9AB2FB681A85FB685B8D9BB2013B1E
:101470009AB2FB685A85FB681B8D002B35D1FB683F
:101480005B8D9BB2002B30D07B690093BB6A00223E
:101490008021F86800F042F90346002B01D00323B5
:1014A00053E0FB685B8D9BB2FF2B0ED9FB68FF22DC
:1014B0001A85FB681B8DDAB27989002300934FF0FF
:1014C0008073F86800F03EFA0FE0FB685B8D9AB21B
:1014D000FB681A85FB681B8DDAB2798900230093BB
:1014E0004FF00073F86800F02DFAFB685B8D9BB23B
:1014F000002B9CD17A69B96AF86800F089F9034633
:10150000002B07D0FB685B6C042B01D101231CE08E
:1015100003231AE0FB681B682022DA61FB681A6863
:10152000FB681B6859680C4B0B405360FB6820221A
:1015300083F84120FB68002283F84220FB680022E8
:1015400083F84020002300E0022318461837BD46E8
:1015500080BD00BF9C7B000800E800FE80B586B01F
:1015600002AFF860084611461A4603467B810B46D7
:101570003B811346FB80FB88DAB279894FF4005334
:1015800000934FF08073F86800F0DCF9FA69B969EC
:10159000F86800F0FDF80346002B07D0FB685B6C91
:1015A000042B01D1012334E0032332E0FB88012B1B
:1015B00005D1FB681B683A89D2B29A621BE0FB68CE
:1015C0001B683A89120A92B2D2B29A62FA69B96970
:1015D000F86800F0DDF80346002B07D0FB685B6C71
:1015E000042B01D1012314E0032312E0FB681B68E4
:1015F0003A89D2B29A62FB690093BB6900228021CA
:10160000F86800F08BF80346002B01D0032300E0BC
:10161000002318461037BD4680BD80B586B002AFA6
:10162000F860084611461A4603467B810B463B810B
:101630001346FB80FB88DAB279894FF4005300939C
:101640000023F86800F07EF9FA69B969F86800F0DB
:101650009FF80346002B07D0FB685B6C042B01D17D
:10166000012334E0032332E0FB88012B05D1FB6822
:101670001B683A89D2B29A621BE0FB681B683A8900
:10168000120A92B2D2B29A62FA69B969F86800F0A5
:101690007FF80346002B07D0FB685B6C042B01D15D
:1016A000012314E0032312E0FB681B683A89D2B2DD
:1016B0009A62FB690093BB6900224021F86800F040
:1016C0002DF80346002B01D0032300E00023184629
:1016D0001037BD4680BD80B483B000AF78607B68B2
:1016E0001B689B6903F00203022B03D17B681B6814
:1016F00000229A627B681B689B6903F00103012B3F
:1017000007D07B681B687A681268926942F0010210
:101710009A6100BF0C37BD4680BC704780B584B06D
:1017200000AFF860B9603B601346FB711CE03B689A
:10173000B3F1FF3F18D03B68002B07D0FEF720FF26
:101740000246BB69D21A3B689A420DD9FB68202237
:1017500083F84120FB68002283F84220FB680022C6
:1017600083F8402003230FE0FB681B689A69BB687D
:101770001A40BB689A420CBF01230023DBB21A4611
:10178000FB799A42D3D0002318461037BD4680BD5E
:1017900080B584B000AFF860B9607A602CE07A68F8
:1017A000B968F86800F070F80346002B01D00123F7
:1017B0002AE0BB68B3F1FF3F1ED0BB68002B07D007
:1017C000FEF7DEFE02467B68D21ABB689A4213D946
:1017D000FB685B6C43F02002FB685A64FB682022C4
:1017E00083F84120FB68002283F84220FB68002236
:1017F00083F84020032307E0FB681B689B6903F024
:101800000203022BCBD1002318461037BD4680BD02
:1018100080B584B000AFF860B9607A6028E07A687B
:10182000B968F86800F030F80346002B01D00123B6
:1018300026E0BB68002B07D0FEF7A2FE02467B68BD
:10184000D21ABB689A4213D9FB685B6C43F0200242
:10185000FB685A64FB68202283F84120FB68002261
:1018600083F84220FB68002283F84020032307E02E
:10187000FB681B689B6903F02003202BCFD100235A
:1018800018461037BD4680BD80B584B000AFF86003
:10189000B9607A60FB681B689B6903F01003102B2A
:1018A00048D11CE0BB68B3F1FF3F18D0BB68002BE8
:1018B00007D0FEF765FE02467B68D21ABB689A42E3
:1018C0000DD9FB68202283F84120FB68002283F8B1
:1018D0004220FB68002283F8402003232BE0FB68B2
:1018E0001B689B6903F02003202BDBD1FB681B687E
:1018F0001022DA61FB681B682022DA61F868FFF7C2
:10190000EAFEFB681A68FB681B6859680C4B0B40C1
:101910005360FB6804225A64FB68202283F841204C
:10192000FB68002283F84220FB68002283F84020F5
:10193000012300E0002318461037BD4680BD00BFDC
:1019400000E800FE80B586B000AFF8607B600B4613
:101950007B8113467B7200237B61FB681B682A4AEC
:1019600093420ED0FB681B68284A934209D0FB685B
:101970001B68274A934204D041F25921254802F0BE
:1019800019FF7B68B3F1807F0BD07B68B3F1007FD8
:1019900007D07B68002B04D041F25A211D4802F089
:1019A00009FF3B6AB3F5804F0FD03B6AB3F5105F78
:1019B0000BD03B6AB3F5005F07D03B6A002B04D025
:1019C00041F25B21134802F0F5FEFB681B685B687F
:1019D0007B617A69104B13407B617B89C3F30902F9
:1019E0007B7A1B0403F47F031A437B681A433B6A28
:1019F00013437A6913437B61FB681B687A695A60F9
:101A000000BF1837BD4680BD00540040005800405C
:101A1000007800409C7B0008009800FC80B582B0F4
:101A200000AF786039607B681B68304A93420DD004
:101A30007B681B682E4A934208D07B681B682D4A3E
:101A4000934203D072212C4802F0B4FE3B68002B75
:101A500007D03B68B3F5805F03D07321264802F0BE
:101A6000A9FE7B6893F84130DBB2202B38D17B682C
:101A700093F84030012B01D1022332E07B68012230
:101A800083F840207B68242283F841207B681B6810
:101A90007A681268126822F001021A607B681B687B
:101AA0007A681268126822F480521A607B681B6898
:101AB0007A68126811683A680A431A607B681B6882
:101AC0007A681268126842F001021A607B6820226C
:101AD00083F841207B68002283F84020002300E047
:101AE000022318460837BD4680BD00BF00540040A1
:101AF0000058004000780040C87B000880B584B0E2
:101B000000AF786039600023FB607B681B682E4A59
:101B100093420DD07B681B682C4A934208D07B68A7
:101B20001B682B4A934203D0A0212A4802F042FEB0
:101B30003B680F2B03D9A121264802F03BFE7B68AE
:101B400093F84130DBB2202B39D17B6893F84030D9
:101B5000012B01D1022333E07B68012283F840206E
:101B60007B68242283F841207B681B687A681268AE
:101B7000126822F001021A607B681B681B68FB6018
:101B8000FB6823F47063FB603B681B02FA68134335
:101B9000FB607B681B68FA681A607B681B687A6860
:101BA0001268126842F001021A607B68202283F8F2
:101BB00041207B68002283F84020002300E00223BC
:101BC00018461037BD4680BD005400400058004004
:101BD00000780040C87B000880B5ADF5007D00AFFF
:101BE0003B1D18600023C7F8F8313B1D1B68002B14
:101BF00004D140F21911BA4802F0DCFD3B1D1B680C
:101C00001B68002B20D03B1D1B681B6803F00103E1
:101C1000002B19D13B1D1B681B6803F00203002B2E
:101C200012D13B1D1B681B6803F00803002B0BD16E
:101C30003B1D1B681B6803F00403002B04D14FF409
:101C40008D71A74802F0B6FD3B1D1B681B6803F0B1
:101C50000103002B00F07B813B1D1B685B68002BA0
:101C600010D03B1D1B685B68B3F5803F0AD03B1D5D
:101C70001B685B68B3F5A02F04D04FF490719848AF
:101C800002F098FD974B5B6803F00C03042B0CD01B
:101C9000944B5B6803F00C03082B5AD1914B5B68A3
:101CA00003F4C033B3F5803F53D14FF40033C7F88A
:101CB000F431D7F8F43193FAA3F3C7F8F031D7F839
:101CC000F031B3FA83F3DBB25B09DBB243F001031B
:101CD000DBB2012B02D1834B1B6815E04FF40033BC
:101CE000C7F8EC31D7F8EC3193FAA3F3C7F8E83131
:101CF0004FF40033C7F8E431D7F8E43193FAA3F393
:101D0000C7F8E031774B5B6A4FF40032C7F8DC214B
:101D1000D7F8DC2192FAA2F2C7F8D821D7F8D82157
:101D2000B2FA82F252B242F0200252B2D2B202F0C1
:101D30001F02012101FA02F21340002B00F006817C
:101D40003B1D1B685B68002B40F00081012300F005
:101D50008BBF3B1D1B685B68B3F5803F06D1614AB2
:101D6000604B1B6843F48033136030E03B1D1B68FD
:101D70005B68002B0CD15B4A5A4B1B6823F4803301
:101D80001360584A574B1B6823F4802313601EE0EE
:101D90003B1D1B685B68B3F5A02F0CD1514A514B1A
:101DA0001B6843F4802313604E4A4E4B1B6843F478
:101DB000803313600BE04B4A4A4B1B6823F480339B
:101DC0001360484A474B1B6823F4802313603B1D74
:101DD0001B685B68002B5AD0FEF7D2FBC7F8F801EE
:101DE0000AE0FEF7CDFB0246D7F8F831D31A642B90
:101DF00002D9032300F038BF4FF40033C7F8D431C1
:101E0000D7F8D43193FAA3F3C7F8D031D7F8D0314B
:101E1000B3FA83F3DBB25B09DBB243F00103DBB25D
:101E2000012B02D12F4B1B6815E04FF40033C7F88C
:101E3000CC31D7F8CC3193FAA3F3C7F8C8314FF4BB
:101E40000033C7F8C431D7F8C43193FAA3F3C7F805
:101E5000C031244B5B6A4FF40032C7F8BC21D7F87D
:101E6000BC2192FAA2F2C7F8B821D7F8B821B2FA89
:101E700082F252B242F0200252B2D2B202F01F02FB
:101E8000012101FA02F21340002BAAD05FE0FEF715
:101E900077FBC7F8F8010AE0FEF772FB0246D7F8B5
:101EA000F831D31A642B02D9032300F0DDBE4FF4BE
:101EB0000033C7F8B431D7F8B43193FAA3F3C7F8B5
:101EC000B031D7F8B031B3FA83F3DBB25B09DBB2E0
:101ED00043F00103DBB2012B06D1024B1B6819E072
:101EE000187C0008001002404FF40033C7F8AC31F2
:101EF000D7F8AC3193FAA3F3C7F8A8314FF4003305
:101F0000C7F8A431D7F8A43193FAA3F3C7F8A031E6
:101F1000C14B5B6A4FF40032C7F89C21D7F89C2173
:101F200092FAA2F2C7F89821D7F89821B2FA82F271
:101F300052B242F0200252B2D2B202F01F0201218C
:101F400001FA02F21340002BA6D100E000BF3B1DB6
:101F50001B681B6803F00203002B00F08F813B1D00
:101F60001B68DB68002B09D03B1D1B68DB68012B5D
:101F700004D04FF4AC71A94802F01CFC3B1D1B6857
:101F80001B691F2B04D940F25911A44802F012FC1E
:101F9000A14B5B6803F00C03002B0CD09E4B5B68DD
:101FA00003F00C03082B6ED19B4B5B6803F4C0332A
:101FB000B3F5004F67D10223C7F89431D7F89431B5
:101FC00093FAA3F3C7F89031D7F89031B3FA83F3BB
:101FD000DBB25B09DBB243F00103DBB2012B02D1C0
:101FE0008D4B1B6813E00223C7F88C31D7F88C3176
:101FF00093FAA3F3C7F888310223C7F88431D7F8DE
:10200000843193FAA3F3C7F88031834B5B6A0222D1
:10201000C7F87C21D7F87C2192FAA2F2C7F8782180
:10202000D7F87821B2FA82F252B242F0200252B2CC
:10203000D2B202F01F02012101FA02F21340002B7A
:1020400007D03B1D1B68DB68012B02D0012300F089
:102050000BBE7148704B1B6823F0F8023B1D1B68D8
:102060001969F823C7F87431D7F8743193FAA3F3D8
:10207000C7F87031D7F87031B3FA83F301FA03F37C
:1020800013430360FAE03B1D1B68DB68002B00F084
:1020900085800123C7F86C31D7F86C3193FAA3F32C
:1020A000C7F86831D7F86831B3FA83F303F1845382
:1020B00003F584139B001A4601231360FEF760FAB0
:1020C000C7F8F8010AE0FEF75BFA0246D7F8F831E4
:1020D000D31A022B02D9032300F0C6BD0223C7F88E
:1020E0006431D7F8643193FAA3F3C7F86031D7F8B5
:1020F0006031B3FA83F3DBB25B09DBB243F0010377
:10210000DBB2012B02D1444B1B6813E00223C7F85A
:102110005C31D7F85C3193FAA3F3C7F85831022346
:10212000C7F85431D7F8543193FAA3F3C7F85031B4
:10213000394B5B6A0222C7F84C21D7F84C2192FA3E
:10214000A2F2C7F84821D7F84821B2FA82F252B277
:1021500042F0200252B2D2B202F01F02012101FA73
:1021600002F21340002BAED02B482B4B1B6823F000
:10217000F8023B1D1B681969F823C7F84431D7F8EA
:10218000443193FAA3F3C7F84031D7F84031B3FA9A
:1021900083F301FA03F3134303606FE00123C7F8ED
:1021A0003C31D7F83C3193FAA3F3C7F83831D7F86C
:1021B0003831B3FA83F303F1845303F584139B009E
:1021C0001A4600231360FEF7DBF9C7F8F8010AE0AE
:1021D000FEF7D6F90246D7F8F831D31A022B02D906
:1021E000032300F041BD0223C7F83431D7F834315E
:1021F00093FAA3F3C7F83031D7F83031B3FA83F349
:10220000DBB25B09DBB243F00103DBB2012B07D188
:10221000014B1B6818E000BF00100240187C00084A
:102220000223C7F82C31D7F82C3193FAA3F3C7F85F
:1022300028310223C7F82431D7F8243193FAA3F3C5
:10224000C7F82031BF4B5B6A0222C7F81C21D7F8C0
:102250001C2192FAA2F2C7F81821D7F81821B2FA75
:1022600082F252B242F0200252B2D2B202F01F0207
:10227000012101FA02F21340002BA9D13B1D1B687A
:102280001B6803F00803002B00F0E4803B1D1B6873
:102290005B69002B09D03B1D1B685B69012B04D0D7
:1022A00040F29911A84802F085FA3B1D1B685B6952
:1022B000002B63D00123C7F81431D7F8143193FAF7
:1022C000A3F3C7F81031D7F81031B3FA83F31A46E5
:1022D0009E4B13449B001A4601231360FEF750F9EE
:1022E000C7F8F8010AE0FEF74BF90246D7F8F831D3
:1022F000D31A022B02D9032300F0B6BC0223C7F87D
:102300000C31D7F80C3193FAA3F3C7F80831022344
:10231000C7F80431D7F8043193FAA3F207F58073B4
:102320001A6007F1FC0302221A6007F1FC031B6824
:1023300093FAA3F207F1F8031A60824B5A6A07F185
:10234000F4030221196007F1F4031B6893FAA3F167
:1023500007F1F003196007F1F0031B68B3FA83F388
:102360005BB243F060035BB2DBB203F01F030121F9
:1023700001FA03F31340002BB5D06BE007F1EC0337
:1023800001221A6007F1EC031B6893FAA3F207F12C
:10239000E8031A6007F1E8031B68B3FA83F31A46EF
:1023A0006A4B13449B001A4600231360FEF7E8F8BB
:1023B000C7F8F8010AE0FEF7E3F80246D7F8F8316B
:1023C000D31A022B02D9032300F04EBC07F1E40319
:1023D00002221A6007F1E4031B6893FAA3F207F1E3
:1023E000E0031A6007F1DC0302221A6007F1DC0344
:1023F0001B6893FAA3F207F1D8031A6007F1D4031C
:1024000002221A6007F1D4031B6893FAA3F207F1C2
:10241000D0031A604B4B5A6A07F1CC0302211960B2
:1024200007F1CC031B6893FAA3F107F1C803196005
:1024300007F1C8031B68B3FA83F35BB243F0600390
:102440005BB2DBB203F01F03012101FA03F3134077
:10245000002BB0D13B1D1B681B6803F00403002B4D
:1024600000F07281002387F8FF313B1D1B689B68D9
:10247000002B0ED03B1D1B689B68012B09D03B1D18
:102480001B689B68052B04D040F2C5112E4802F052
:1024900091F92C4BDB6903F08053002B12D1294AB0
:1024A000284BDB6943F08053D361264BDB6903F093
:1024B000805207F10C031A6007F10C031B6801231B
:1024C00087F8FF31224B1B6803F48073002B1AD16D
:1024D0001F4A1F4B1B6843F480731360FEF750F8CC
:1024E000C7F8F80109E0FEF74BF80246D7F8F831D3
:1024F000D31A642B01D90323B6E3154B1B6803F4ED
:102500008073002BEFD03B1D1B689B68012B06D10D
:102510000C4A0C4B1B6A43F00103136238E03B1D6D
:102520001B689B68002B15D1064A064B1B6A23F0DB
:1025300001031362034A034B1B6A23F00403136273
:1025400026E000BF00100240187C00082081901097
:10255000007000403B1D1B689B68052B0CD15E4A38
:102560005D4B1B6A43F0040313625B4A5A4B1B6AC0
:1025700043F0010313620BE0574A574B1B6A23F0E9
:1025800001031362544A544B1B6A23F00403136281
:102590003B1D1B689B68002B65D0FDF7F1FFC7F85A
:1025A000F8010BE0FDF7ECFF0246D7F8F831D31A3B
:1025B00041F28832934201D9032355E307F1C40362
:1025C00002221A6007F1C4031B6893FAA3F207F111
:1025D000C0031A6007F1BC0302221A6007F1BC03B2
:1025E0001B6893FAA3F207F1B8031A6007F1B80366
:1025F0001B68B3FA83F3DBB25B09DBB243F002037F
:10260000DBB2022B02D1344B1B6A0DE007F1B4039D
:1026100002221A6007F1B4031B6893FAA3F207F1D0
:10262000B0031A602C4B5B6A07F1AC020221116007
:1026300007F1AC02126892FAA2F107F1A802116048
:1026400007F1A8021268B2FA82F252B242F04002D6
:1026500052B2D2B202F01F02012101FA02F213407B
:10266000002B9FD066E0FDF78BFFC7F8F8010BE069
:10267000FDF786FF0246D7F8F831D31A41F28832C7
:10268000934201D90323EFE207F1A40302221A6067
:1026900007F1A4031B6893FAA3F207F1A0031A60E1
:1026A00007F19C0302221A6007F19C031B6893FA4E
:1026B000A3F207F198031A6007F198031B68B3FAB5
:1026C00083F3DBB25B09DBB243F00203DBB2022B24
:1026D00004D1014B1B6A0FE00010024007F1940384
:1026E00002221A6007F194031B6893FAA3F207F120
:1026F00090031A60AD4B5B6A07F18C0202211160F6
:1027000007F18C02126892FAA2F107F188021160B7
:1027100007F188021268B2FA82F252B242F0400225
:1027200052B2D2B202F01F02012101FA02F21340AA
:10273000002B9DD197F8FF31012B05D19B4A9B4B74
:10274000DB6923F08053D3613B1D1B689B69002B21
:102750000ED03B1D1B689B69012B09D03B1D1B68DC
:102760009B69022B04D040F20921914802F022F823
:102770003B1D1B689B69002B00F075828B4B5B68CF
:1027800003F00C03082B00F06C823B1D1B689B6957
:10279000022B40F0E4813B1D1B68DB69B3F5004F61
:1027A0000AD03B1D1B68DB69B3F5803F04D040F2C3
:1027B00012217F4801F0FEFF3B1D1B681B6A002BA6
:1027C00058D03B1D1B681B6AB3F5802F52D03B1DB0
:1027D0001B681B6AB3F5002F4CD03B1D1B681B6A9E
:1027E000B3F5402F46D03B1D1B681B6AB3F5801F15
:1027F00040D03B1D1B681B6AB3F5A01F3AD03B1DA0
:102800001B681B6AB3F5C01F34D03B1D1B681B6AD5
:10281000B3F5E01F2ED03B1D1B681B6AB3F5001FEC
:1028200028D03B1D1B681B6AB3F5101F22D03B1D2F
:102830001B681B6AB3F5201F1CD03B1D1B681B6A5D
:10284000B3F5301F16D03B1D1B681B6AB3F5401F44
:1028500010D03B1D1B681B6AB3F5501F0AD03B1DEF
:102860001B681B6AB3F5601F04D040F21321504867
:1028700001F0A0FF3B1D1B685B6A002B4FD03B1D86
:102880001B685B6A012B4AD03B1D1B685B6A022BED
:1028900045D03B1D1B685B6A032B40D03B1D1B686A
:1028A0005B6A042B3BD03B1D1B685B6A052B36D053
:1028B0003B1D1B685B6A062B31D03B1D1B685B6AA6
:1028C000072B2CD03B1D1B685B6A082B27D03B1DB8
:1028D0001B685B6A092B22D03B1D1B685B6A0A2BB5
:1028E0001DD03B1D1B685B6A0B2B18D03B1D1B6862
:1028F0005B6A0C2B13D03B1D1B685B6A0D2B0ED043
:102900003B1D1B685B6A0E2B09D03B1D1B685B6A75
:102910000F2B04D040F21521254801F04BFF07F1A1
:1029200084034FF080721A6007F184031B6893FAE6
:10293000A3F207F180031A6007F180031B68B3FA62
:1029400083F303F1845303F584139B001A46002399
:102950001360FDF715FEC7F8F80109E0FDF710FE5A
:102960000246D7F8F831D31A022B01D903237BE1B1
:1029700007F17C034FF000721A6007F17C031B68BB
:1029800093FAA3F207F178031A6007F178031B6842
:10299000B3FA83F3DBB25B09DBB243F00103DBB2D2
:1029A000012B07D1014B1B6820E000BF0010024043
:1029B000187C000807F174034FF000721A6007F1E9
:1029C00074031B6893FAA3F207F170031A6007F10E
:1029D0006C034FF000721A6007F16C031B6893FAE6
:1029E000A3F207F168031A60A24B5B6A07F1640265
:1029F0004FF00071116007F16402126892FAA2F1BF
:102A000007F16002116007F160021268B2FA82F207
:102A100052B242F0200252B2D2B202F01F020121A1
:102A200001FA02F21340002B98D19249914BDB6AD4
:102A300023F00F023B1D1B685B6A1343CB628D487A
:102A40008C4B5B6823F476123B1D1B68196A3B1D97
:102A50001B68DB690B431343436007F15C034FF0D2
:102A600080721A6007F15C031B6893FAA3F207F106
:102A700058031A6007F158031B68B3FA83F303F194
:102A8000845303F584139B001A4601231360FDF75A
:102A900077FDC7F8F80109E0FDF772FD0246D7F8A7
:102AA000F831D31A022B01D90323DDE007F15403D7
:102AB0004FF000721A6007F154031B6893FAA3F2F7
:102AC00007F150031A6007F150031B68B3FA83F350
:102AD000DBB25B09DBB243F00103DBB2012B02D1B5
:102AE000644B1B681BE007F14C034FF000721A6047
:102AF00007F14C031B6893FAA3F207F148031A602D
:102B000007F144034FF000721A6007F144031B6899
:102B100093FAA3F207F140031A60564B5B6A07F180
:102B20003C024FF00071116007F13C02126892FA0A
:102B3000A2F107F13802116007F138021268B2FA07
:102B400082F252B242F0200252B2D2B202F01F021E
:102B5000012101FA02F21340002B9DD083E007F11E
:102B600034034FF080721A6007F134031B6893FA44
:102B7000A3F207F130031A6007F130031B68B3FAC0
:102B800083F303F1845303F584139B001A46002357
:102B90001360FDF7F5FCC7F8F80109E0FDF7F0FC5C
:102BA0000246D7F8F831D31A022B01D903235BE090
:102BB00007F12C034FF000721A6007F12C031B6819
:102BC00093FAA3F207F128031A6007F128031B68A0
:102BD000B3FA83F3DBB25B09DBB243F00103DBB290
:102BE000012B02D1234B1B681BE007F124034FF09C
:102BF00000721A6007F124031B6893FAA3F207F12D
:102C000020031A6007F11C034FF000721A6007F1ED
:102C10001C031B6893FAA3F207F118031A60154B03
:102C20005B6A07F114024FF00071116007F11402A2
:102C3000126892FAA2F107F11002116007F1100276
:102C40001268B2FA82F252B242F0200252B2D2B20A
:102C500002F01F02012101FA02F21340002B9DD164
:102C600001E0012300E00023184607F50077BD4688
:102C700080BD00BF0010024080B59EB000AF7860FC
:102C8000396000237B677B68002B04D140F27721F9
:102C9000974801F08FFD7B681B6803F00103002B50
:102CA00016D17B681B6803F00203002B10D17B68F0
:102CB0001B6803F00403002B0AD17B681B6803F038
:102CC0000803002B04D14FF41E71894801F072FDF6
:102CD0003B68002B0AD03B68012B07D03B68022BD6
:102CE00004D040F27921824801F064FD814B1B68D9
:102CF00003F007023B689A4210D27E497D4B1B6865
:102D000023F007023B6813430B607A4B1B6803F008
:102D100007023B689A4201D00123EDE17B681B6802
:102D200003F00203002B31D07B689B68002B24D07A
:102D30007B689B68802B20D07B689B68902B1CD085
:102D40007B689B68A02B18D07B689B68B02B14D045
:102D50007B689B68C02B10D07B689B68D02B0CD005
:102D60007B689B68E02B08D07B689B68F02B04D0C5
:102D70004FF424715E4801F01DFD5F495E4B5B68B6
:102D800023F0F0027B689B6813434B607B681B68F1
:102D900003F00103002B00F022817B685B68002BAD
:102DA0000CD07B685B68012B08D07B685B68022BCA
:102DB00004D040F297214E4801F0FCFC7B685B6830
:102DC000012B3ED14FF400333B673B6F93FAA3F3E3
:102DD000FB66FB6EB3FA83F3DBB25B09DBB243F055
:102DE0000103DBB2012B02D1434B1B680FE04FF410
:102DF0000033BB66BB6E93FAA3F37B664FF40033DC
:102E00003B663B6E93FAA3F3FB653B4B5B6A4FF467
:102E10000032BA65BA6D92FAA2F27A657A6DB2FAA8
:102E200082F252B242F0200252B2D2B202F01F023B
:102E3000012101FA02F21340002B40F085800123AA
:102E40005AE17B685B68022B3DD14FF000733B6514
:102E50003B6D93FAA3F3FB64FB6CB3FA83F3DBB231
:102E60005B09DBB243F00103DBB2012B02D1224B41
:102E70001B680FE04FF00073BB64BB6C93FAA3F3C5
:102E80007B644FF000733B643B6C93FAA3F3FB63EA
:102E9000194B5B6A4FF00072BA63BA6B92FAA2F2F6
:102EA0007A637A6BB2FA82F252B242F0200252B2E4
:102EB000D2B202F01F02012101FA02F21340002BEC
:102EC00042D1012318E102233B633B6B93FAA3F346
:102ED000FB62FB6AB3FA83F3DBB25B09DBB243F05C
:102EE0000103DBB2012B09D1034B1B6814E000BFC7
:102EF000187C000800200240001002400223BB6240
:102F0000BB6A93FAA3F37B6202233B623B6A93FAA8
:102F1000A3F3FB617A4B5B6A0222BA61BA6992FA47
:102F2000A2F27A617A69B2FA82F252B242F02002D7
:102F300052B2D2B202F01F02012101FA02F2134092
:102F4000002B01D10123D7E06D496D4B5B6823F065
:102F500003027B685B6813434B60FDF711FB7867E6
:102F60007B685B68012B12D10AE0FDF709FB024682
:102F70007B6FD31A41F28832934201D90323BBE01D
:102F80005F4B5B6803F00C03042BEED127E07B68FA
:102F90005B68022B1DD10AE0FDF7F2FA02467B6F57
:102FA000D31A41F28832934201D90323A4E0544B4F
:102FB0005B6803F00C03082BEED110E0FDF7E0FA9C
:102FC00002467B6FD31A41F28832934201D9032320
:102FD00092E04B4B5B6803F00C03002BEED1494BA6
:102FE0001B6803F007023B689A4210D94549454BDC
:102FF0001B6823F007023B6813430B60414B1B68BF
:1030000003F007023B689A4201D0012374E07B6819
:103010001B6803F00403002B25D07B68DB68002BC2
:1030200018D07B68DB68B3F5806F13D07B68DB68F2
:10303000B3F5A06F0ED07B68DB68B3F5C06F09D025
:103040007B68DB68B3F5E06F04D040F2E9212E48DD
:1030500001F0B0FB2A492A4B5B6823F4E0627B68ED
:10306000DB6813434B607B681B6803F00803002B8D
:1030700026D07B681B69002B18D07B681B69B3F5D1
:10308000806F13D07B681B69B3F5A06F0ED07B688F
:103090001B69B3F5C06F09D07B681B69B3F5E06F9E
:1030A00004D04FF43C71184801F084FB1449144BD0
:1030B0005B6823F460527B681B69DB0013434B6041
:1030C00000F028F801460E4B5B6803F0F002F02395
:1030D0003B613B6993FAA3F3FB60FB68B3FA83F3AC
:1030E00022FA03F3094AD35C21FA03F3084A136076
:1030F0000020FDF71BFA002318467837BD4680BD37
:103100000010024000200240187C0008DC7D00080E
:103110000C00002080B48BB000AF0023FB610023C3
:10312000BB6100237B6200237B6100233B622A4B4F
:103130005B68FB61FB6903F00C03042B02D0082BD6
:1031400003D03FE0254B3B623FE0FB6903F4701284
:103150004FF47013BB60BB6893FAA3F37B607B688A
:10316000B3FA83F322FA03F31D4AD35C7B611A4B53
:10317000DB6A03F00F020F233B613B6993FAA3F371
:10318000FB60FB68B3FA83F322FA03F3154AD35CBE
:10319000BB61FB6903F48033002B08D00F4ABB6985
:1031A000B2FBF3F37A6902FB03F37B6207E00B4A9D
:1031B000BB69B2FBF3F37A6902FB03F37B627B6AC0
:1031C0003B6202E0054B3B6200BF3B6A18462C376E
:1031D000BD4680BC704700BF0010024000127A005C
:1031E000F87B0008087C000880B400AF024B1B6825
:1031F0001846BD4680BC70470C00002080B592B0D8
:1032000000AF786000233B640023FB637B681B688E
:10321000614A934203D97D21604801F0CBFA7B6873
:103220001B6803F48033002B00F0F1807B685B683F
:10323000002B12D07B685B68B3F5807F0DD07B6874
:103240005B68B3F5007F08D07B685B68B3F5407FAF
:1032500003D08321514801F0ADFA002387F84730AD
:103260004F4BDB6903F08053002B0ED14C4A4C4B83
:10327000DB6943F08053D361494BDB6903F0805332
:10328000BB60BB68012387F84730464B1B6803F4DB
:103290008073002B18D1434A424B1B6843F4807360
:1032A0001360FDF76DF9386408E0FDF769F902462F
:1032B0003B6CD31A642B01D903238DE3394B1B6874
:1032C00003F48073002BF0D0354B1B6A03F440737A
:1032D000FB63FB6B002B00F087807B685B6803F46B
:1032E0004072FB6B9A427FD02D4B1B6A23F44073D4
:1032F000FB634FF480333B633B6B93FAA3F3FB62B6
:10330000FB6AB3FA83F31A46274B13449B001A4611
:10331000012313604FF48033BB63BB6B93FAA3F3B9
:103320007B637B6BB3FA83F31A461F4B13449B00FA
:103330001A46002313601A4AFB6B1362FB6B03F0FF
:103340000103002B50D0FDF71BF938640AE0FDF7AC
:1033500017F902463B6CD31A41F28832934201D9E5
:10336000032339E30223BB62BB6A93FAA3F37B62B4
:1033700002233B623B6A93FAA3F3FB61FB69B3FA56
:1033800083F3DBB25B09DBB243F00203DBB2022B57
:103390000CD1034B1B6A11E0FF33F703447C000898
:1033A0000010024000700040008190100223BB61B9
:1033B000BB6993FAA3F37B61984B5B6A02223A6183
:1033C0003A6992FAA2F2FA60FA68B2FA82F252B25A
:1033D00042F0400252B2D2B202F01F02012101FAC1
:1033E00002F21340002BB2D08C498C4B1B6A23F4A1
:1033F00040727B685B6813430B6297F84730012B80
:1034000005D1864A854BDB6923F08053D3617B6805
:103410001B6803F00103002B1CD07B689B68002B0A
:103420000FD07B689B68012B0BD07B689B68022BBD
:1034300007D07B689B68032B03D0CA21784801F032
:10344000B9F97649754B1B6B23F003027B689B68C7
:1034500013430B637B681B6803F00203002B1FD030
:103460007B68DB68002B12D07B68DB68B3F5803F9C
:103470000DD07B68DB68B3F5003F08D07B68DB6864
:10348000B3F5403F03D0D521654801F093F9634976
:10349000624B1B6B23F440327B68DB6813430B6386
:1034A0007B681B6803F00403002B1FD07B681B693B
:1034B000002B12D07B681B69B3F5802F0DD07B6881
:1034C0001B69B3F5002F08D07B681B69B3F5402F4B
:1034D00003D0E121524801F06DF950494F4B1B6B6D
:1034E00023F440227B681B6913430B637B681B68D2
:1034F00003F02003002B14D07B68DB69002B07D07E
:103500007B68DB69102B03D0EC21454801F052F9B0
:103510004249424B1B6B23F010027B68DB6913436B
:103520000B637B681B6803F40033002B15D07B68AA
:103530005B6DB3F5800F07D07B685B6D002B03D00C
:10354000FA21374801F036F93449344B5B6823F4EB
:1035500080027B685B6D13434B607B681B6803F0E4
:103560004003002B15D07B681B6A002B08D07B68BA
:103570001B6A202B04D04FF48771294801F01AF9F7
:103580002649264B1B6B23F020027B681B6A1343E2
:103590000B637B681B6803F48023002B15D07B68CA
:1035A0005B6A002B08D07B685B6A402B04D04FF429
:1035B00090711B4801F0FEF81849184B1B6B23F063
:1035C00040027B685B6A13430B637B681B6803F0F4
:1035D0000803002B26D07B685B69002B13D07B6827
:1035E0005B69B3F5801F0ED07B685B69B3F5001F84
:1035F00009D07B685B69B3F5401F04D040F22F11FE
:10360000074801F0D7F80549044B1B6B23F440121F
:103610007B685B6913430B6304E000BF001002404A
:10362000447C00087B681B6803F01003002B20D04B
:103630007B689B69002B13D07B689B69B3F5800F77
:103640000ED07B689B69B3F5000F09D07B689B693E
:10365000B3F5400F04D040F23911A24801F0AAF8A6
:10366000A149A14B1B6B23F440027B689B69134368
:103670000B637B681B6803F40073002B16D07B6818
:103680001B6B002B09D07B681B6BB3F5000F04D0BC
:1036900040F24911934801F08DF89349924B5B68D1
:1036A00023F400027B681B6B13434B607B681B6831
:1036B00003F08003002B4DD07B689B6A002B40D029
:1036C0007B689B6AB3F5807F3BD07B689B6AB3F5D0
:1036D000887F36D07B689B6AB3F5907F31D07B685A
:1036E0009B6AB3F5987F2CD07B689B6AB3F5A07F6B
:1036F00027D07B689B6AB3F5A87F22D07B689B6A42
:10370000B3F5B07F1DD07B689B6AB3F5B87F18D046
:103710007B689B6AB3F5C07F13D07B689B6AB3F567
:10372000C87F0ED07B689B6AB3F5D07F09D07B68D9
:103730009B6AB3F5D87F04D040F26911694801F063
:1037400039F86949684BDB6A23F4F8727B689B6A35
:103750001343CB627B681B6803F48073002B4DD04E
:103760007B68DB6A002B40D07B68DB6AB3F5005FC7
:103770003BD07B68DB6AB3F5085F36D07B68DB6AD9
:10378000B3F5105F31D07B68DB6AB3F5185F2CD0DE
:103790007B68DB6AB3F5205F27D07B68DB6AB3F513
:1037A000285F22D07B68DB6AB3F5305F1DD07B6871
:1037B000DB6AB3F5385F18D07B68DB6AB3F5405F2E
:1037C00013D07B68DB6AB3F5485F0ED07B68DB6A99
:1037D000B3F5505F09D07B68DB6AB3F5585F04D05E
:1037E0004FF4BD713F4800F0E5FF3F493E4BDB6AB7
:1037F00023F478527B68DB6A1343CB627B681B68D7
:1038000003F48053002B16D07B685B6B002B09D030
:103810007B685B6BB3F5807F04D04FF4CD7131488A
:1038200000F0C8FF3049304B1B6B23F480727B687B
:103830005B6B13430B637B681B6803F40053002B23
:1038400016D07B681B6C002B09D07B681B6CB3F512
:10385000007F04D04FF4D671224800F0ABFF22491C
:10386000214B1B6B23F400727B681B6C13430B63AF
:103870007B681B6803F48013002B16D07B689B6B5E
:10388000002B09D07B689B6BB3F1807F04D040F2A2
:103890000321144800F08EFF1349134B1B6B23F0D8
:1038A00080727B689B6B13430B637B681B6803F41C
:1038B0000013002B1BD07B68DB6B002B09D07B68CF
:1038C000DB6BB3F1007F04D040F20D21054800F01E
:1038D00071FF0549044B1B6B23F000727B68DB6BA7
:1038E000134303E0447C0008001002400B637B6834
:1038F0001B6803F48003002B16D07B685B6C002BE5
:1039000009D07B685B6CB3F5806F04D040F217215F
:10391000334800F04FFF3349324B1B6B23F4806276
:103920007B685B6C13430B637B681B6803F40003C9
:10393000002B16D07B689B6C002B09D07B689B6C9E
:10394000B3F5006F04D040F22121254800F032FF8A
:103950002449244B1B6B23F400627B689B6C13434C
:103960000B637B681B6803F08073002B16D07B68A9
:10397000DB6C002B09D07B68DB6CB3F5005F04D0F7
:1039800040F22B21164800F015FF1649154B1B6B12
:1039900023F400527B68DB6C13430B637B681B686A
:1039A00003F00073002B16D07B681B6D002B09D031
:1039B0007B681B6DB3F5004F04D04FF40E710848BF
:1039C00000F0F8FE0749074B1B6B23F400427B68AD
:1039D0001B6D13430B63002318464837BD4680BD5B
:1039E000447C00080010024080B483B000AF7860CF
:1039F000FEE7000080B584B000AF7860144B1B6810
:103A0000002B02D1124B134A1A60114B1B68FB604A
:103A10007B68033323F003037B600D4B1A687B68DC
:103A200013440D4A934207D901F0C6FE02460C2307
:103A300013604FF0FF3306E0054B1A687B681344B0
:103A4000034A1360FB6818461037BD4680BD00BFAF
:103A5000F8010020E806002000FC002080B483B0BC
:103A600000AF786039607B6801221A603B68034AC6
:103A70001A6000BF0C37BD4680BC704704000020B0
:103A80000FB480B582B000AF07F114033B603B6810
:103A90003A6980210A4802F04DFB78607B68002B70
:103AA00005DD7B681946064800F00CF878607B68F5
:103AB00018460837BD46BDE8804004B0704700BFD7
:103AC0000002002080B582B000AF786039603968AC
:103AD000786800F005F8034618460837BD4680BDF3
:103AE000B0B590B000AF786039607A683B68134435
:103AF00093F90030002B0BD104233B637B68FB62FE
:103B00003C6BFD6A20462946ABBE0446BC6236E0EB
:103B10003B68FB6330E0FB6B102B28BF10237B63FB
:103B20000023BB630EE07B6893F9001007F10C02E1
:103B3000BB6B13440A461A70BB6B0133BB637B68D3
:103B400001337B60BA6B7B6B9A42ECD307F10C02BA
:103B5000BB6B134400221A7004237B6207F10C0331
:103B60003B627C6A3D6A20462946ABBE0446FC6146
:103B7000FA6B7B6BD31AFB63FB6B002BCBD13B68DF
:103B800018464037BD46B0BD80B500AF00F0D0F854
:103B9000024B034A9A6000BF80BD00BF00ED00E009
:103BA0000000000880B500AF00F004F900BF80BD40
:103BB00080B584B000AFF860B9607A603B6034488B
:103BC000FFF75EFFFB681B6819463248FFF758FF96
:103BD000FB685B6819463048FFF752FFFB689B683B
:103BE00019462E48FFF74CFFFB68DB6819462C4846
:103BF000FFF746FFFB681B6919462A48FFF740FF9D
:103C0000FB685B6919462848FFF73AFFFB689B6928
:103C100019462648FFF734FFFB68DB69194624483C
:103C2000FFF72EFF2348FFF72BFFB9682248FFF765
:103C300027FF224BDB6A19462148FFF721FF1F4B64
:103C40001B6B19461F48FFF71BFF1C4BDB6B19460C
:103C50001D48FFF715FFBB6803F08003002B03D05E
:103C600079681A48FFF70CFFBB6803F40043002B88
:103C700003D039681648FFF703FF1648FFF700FF27
:103C8000B9691548FFF7FCFE00BF1037BD4680BD7F
:103C9000947C0008A47C0008B47C0008C47C000864
:103CA000D47C0008E47C0008F47C0008047D000853
:103CB000147D0008247D0008307D000800ED00E040
:103CC000407D0008507D0008607D0008707D000880
:103CD000807D0008907D0008987D000880B485B044
:103CE00000AF78600B467B807B689B69FB60FB685C
:103CF0001B887A889A4213D17B681B68BB60BB68BB
:103D0000032B03D0042B03D000230AE000BF00E004
:103D100000BF7B689B699A1C7B689A61012300E065
:103D2000002318461437BD4680BC7047FEE70000EC
:103D300080B400AF1B4A1B4B1B6843F001031360A8
:103D40001849184B5A68184B13404B60154A154BCD
:103D50001B6823F0847323F480331360114A114BE2
:103D60001B6823F4802313600E4A0E4B5B6823F418
:103D7000FE0353600B4A0B4BDB6A23F00F03D36245
:103D80000849084B1A6B094B13400B63054B002283
:103D90009A60074B4FF000629A6000BFBD4680BC3E
:103DA000704700BF001002400CC07FF8CCFC00FF41
:103DB00000ED00E080B485B000AF0023FB6000237D
:103DC000BB6000237B6000233B602C4B5B6803F0EF
:103DD0000C03FB60FB68042B07D0082B09D0002BD9
:103DE00033D1274B274A1A6033E0254B254A1A6006
:103DF0002FE0224B5B6803F47013BB601F4B5B68C2
:103E000003F4C0337B60BB689B0C0233BB601B4B6D
:103E1000DB6A03F00F0301333B607B68B3F5803F3F
:103E200009D1184A3B68B2FBF3F3BA6802FB03F30B
:103E3000134A13600DE0134A3B68B2FBF3F3BA6810
:103E400002FB03F30E4A136003E00D4B0D4A1A60A8
:103E500000BF0A4B5B681B0903F00F030A4AD35CDF
:103E6000FB60074B1A68FB6822FA03F3044A1360ED
:103E700000BF1437BD4680BC704700BF0010024031
:103E80000C00002000127A00DC7D000890B593B091
:103E900000AFFCF735FB00F0EFFA00F0A1FB00F0FB
:103EA00055FB00F095F800F0A7FC00F0D7F800F003
:103EB000FDF8034687F847304FF47A7000F012F9A6
:103EC000034687F8473007F14003184600F03CF9F5
:103ED000034687F8473007F13003184600F0A4F98D
:103EE000034687F8473007F12003184600F0ECF945
:103EF000034687F8473007F11003184600F04CFAE4
:103F0000034687F847303B6C184601F04FF80346EC
:103F10000C4607F134001A462346284902F0B2F84D
:103F20003B6B184601F042F803460C4607F12400AB
:103F30001A462346214902F0A5F83B6A184601F0CB
:103F400035F803460C4607F114001A4623461B4970
:103F500002F098F83B69184601F028F803460C4631
:103F6000381D1A462346154902F08CF807F1340330
:103F70001349184600F048F84FF47A70FCF70AFB32
:103F800007F124030F49184600F03EF84FF47A7009
:103F9000FCF700FB07F114030B49184600F034F856
:103FA0004FF47A70FCF7F6FA3B1D0849184600F00A
:103FB0002BF84FF47A70FCF7EDFA78E7B49200082A
:103FC000B8920008C0920008D0920008DC92000865
:103FD00080B586B004AF5A233B714FF4FA73029355
:103FE000012301933B1D00930123012298210548E1
:103FF000FDF74CF80346FB71FB7918460837BD46C0
:1040000080BD00BF9806002080B582B000AF786008
:104010003960002000F05CFC0421042000F0B8FDB1
:104020000C4A012306CA386800F086FD1E210F20C5
:1040300000F0AEFD084A012306CA786800F07CFD56
:1040400000F068FC4FF4FA70FCF7A4FA00BF0837E0
:10405000BD4680BD100000201800002080B582B051
:1040600000AF00237B60002000F032FC7B68DBB2F5
:104070001946142000F08CFD0A4A012306CA0A489A
:1040800000F05AFD00F046FC7B6801337B607B68E2
:10409000512BE8DD00237B6000BF00BF0837BD4621
:1040A00080BD00BF180000200893000880B586B0CE
:1040B00004AF0023BB714FF4FA7302930123019301
:1040C000BB1D00930123022298210548FCF7DEFF67
:1040D0000346FB71FB7918460837BD4680BD00BF1B
:1040E0009806002080B588B004AF0346FB8000230B
:1040F0007B730023BB7318E06423029301230193B5
:1041000007F10D0300930123002298210C48FDF7CD
:10411000F1F80346FB737B7B03F04003BB730A207B
:10412000FCF738FAFB880A3BFB80FB88002B02D0A7
:10413000BB7B002BE0D0FB7B18461037BD4680BD13
:10414000980600200000000090B589B004AF7860A8
:10415000642302930123019307F1080300930123D1
:104160000E2298212E48FDF7C5F80346FB73FB7B12
:10417000002B01D0FB7B44E06423029301230193D5
:1041800007F108030133009301230F2298212448EB
:10419000FDF7B0F80346FB73FB7B002B01D0FB7BE4
:1041A0002FE03B7A1B021AB27B7A1BB213431BB27D
:1041B0009BB2C3F30D03BB81BB89184600F0E4FE3C
:1041C00013A3D3E9002300F045FF03460C4618462D
:1041D000214611A3D3E9002301F066F803460C46FB
:1041E000184621464FF000020E4B00F081FD0346B9
:1041F0000C461846214601F03FF902467B681A60DA
:10420000FB7B18461437BD4690BD00BFAFF300805E
:104210007B14AE47E11273400000000080842E4101
:10422000980600200000044090B589B004AF786083
:104230004FF47A7302930123019307F1080300936B
:104240000123052298211E48FDF754F80346FB730D
:104250004FF47A7302930123019307F108030133AA
:1042600000930123042298211548FDF743F80346E3
:10427000FB73FB7B002B01D0FB7B1DE07B7A1B02D9
:104280001BB203F4F8531AB23B7A1BB213431BB2AE
:10429000BB81BB89184600F077FE4FF00002094B46
:1042A00001F002F803460C461846214601F0E4F8F6
:1042B00002467B681A60FB7B18461437BD4690BDEA
:1042C000980600200000304090B58BB004AF7860B5
:1042D000642302930123019307F10C03009301234C
:1042E0000B2298212848FDF705F80346FB75642347
:1042F00002930123019307F10C030133009301237F
:104300000A2298212048FCF7F5FF0346FB75FB7D48
:10431000002B01D0FB7D2DE07B7B1B021AB23B7B87
:104320001BB213431BB29BB2C3F30E03BB82BB8A07
:10433000184600F029FE12A3D3E9002300F08AFEFC
:1043400003460C46184621464FF000020F4B00F082
:10435000ABFF03460C461846214601F08DF8034694
:104360003B610B49386901F08BF903461A467B68BB
:104370001A60FB7D18461C37BD4690BDAFF3008028
:104380007B14AE47E11273409806002000408F4036
:1043900000007A4400000000B0B588B004AF786037
:1043A0000123FB73642302930123019307F10803A4
:1043B00000930123072298212D48FCF79BFF034619
:1043C000BB73642302930123019307F108030133B4
:1043D00000930123062298212548FCF78BFF034612
:1043E000BB73BB7B002B01D0BB7B36E07B7A1B020F
:1043F0001AB23B7A1BB213431BB29BB2C3F30D0339
:104400009BB20133BB81BB89184600F0BDFD16A3EA
:10441000D3E9002300F01EFE03460C4625461C4649
:10442000FB7B184600F0B0FD02460B4620462946AD
:1044300000F03AFF03460C46184621464FF00002B2
:104440000C4B00F031FF03460C461846214601F0A4
:1044500013F802467B681A60BB7B18461037BD46CE
:10446000B0BD00BFAFF30080EC51B81E856B334088
:104470009806002000408F4080B5A6B000AF022310
:104480003B670123FB671023C7F880300223C7F87E
:1044900088304FF40043C7F88C304FF4E013C7F86E
:1044A00090300023C7F8943007F170031846FDF7E9
:1044B00093FB0346002B04D04FF4C671214800F053
:1044C00073F90F23FB6502233B6600237B664FF4E1
:1044D0008063BB660023FB6607F15C03022118467C
:1044E000FEF7CAFB0346002B04D04FF4CD711548EC
:1044F00000F05AF920237B6000233B623B1D1846E5
:10450000FEF77CFE0346002B04D040F2A1110D48BB
:1045100000F04AF9FEF768FE02460B4BA3FB0223AC
:104520009B091846FCF77EF90420FCF787F9002266
:1045300000214FF0FF30FCF731F900BF9837BD463E
:1045400080BD00BF14930008D34D621080B500AF4A
:104550001F4B204A1A601E4B1F4A5A601C4B0022F8
:104560009A601B4B0122DA60194B00221A61184B2A
:1045700000225A61164B00229A61154B0022DA6123
:10458000134B00221A621248FCF766FC0346002B0C
:1045900004D040F2BF11114800F006F900210C4888
:1045A000FDF73CFA0346002B04D04FF4E3710B48AF
:1045B00000F0FAF800210648FDF7A0FA0346002BA8
:1045C00004D040F2CD11054800F0EEF800BF80BDE8
:1045D00098060020005400400E09002014930008A3
:1045E00080B58AB000AF574A564B5B6943F400234D
:1045F0005361544B5B6903F400233B613B69514AAF
:10460000504B5B6943F4800353614E4B5B6903F489
:104610008003FB60FB684B4A4A4B5B6943F4003301
:104620005361484B5B6903F40033BB60BB68454A88
:10463000444B5B6943F480235361424B5B6903F451
:1046400080237B607B6801224FF484614FF09040AF
:10465000FCF79AFB012220213B48FCF795FB4FF425
:1046600000537B61394BBB610023FB6107F11403ED
:1046700019463748FCF716F90C237B610223BB610E
:104680000123FB6100233B6207237B6207F11403D4
:1046900019464FF09040FCF705F94FF484637B61B5
:1046A0000123BB610023FB6100233B6207F114037C
:1046B00019464FF09040FCF7F5F84FF480737B619A
:1046C000244BBB610123FB6107F1140319464FF032
:1046D0009040FCF7E7F810237B611E4BBB61012380
:1046E000FB6107F1140319461748FCF7DBF8202398
:1046F0007B610123BB610023FB6100233B6207F167
:10470000140319461048FCF7CDF8002200210A20B6
:10471000FCF744F80A20FCF76DF80022002117206E
:10472000FCF73CF81720FCF765F800220021282050
:10473000FCF734F82820FCF75DF800BF2837BD46A9
:1047400080BD00BF0010024000040048000021109E
:10475000000800480000111080B582B000AF034689
:10476000FB80FB88B3F5807F13D0B3F5005F02D0E8
:10477000102B07D012E04FF480614FF09040FCF70F
:1047800033FB0BE04FF480614FF09040FCF72CFBC3
:1047900004E020210348FCF727FB00BF00BF0837D7
:1047A000BD4680BD0004004880B483B000AF78608F
:1047B0003960FEE780B483B000AF7860396000BF35
:1047C0000C37BD4680BC704780B586B004AF034649
:1047D000FB710A23029301230193FB1D0093012324
:1047E000002278210348FCF751FC00BF0837BD4682
:1047F00080BD00BF9806002080B500AF6420FBF7A5
:10480000C9FEAE20FFF7E0FF2020FFF7DDFF1020FC
:10481000FFF7DAFFB020FFF7D7FFC820FFF7D4FF7C
:104820000020FFF7D1FF1020FFF7CEFF4020FFF759
:10483000CBFF8120FFF7C8FFFF20FFF7C5FFA120B6
:10484000FFF7C2FFA620FFF7BFFFA820FFF7BCFFBE
:104850003F20FFF7B9FFA420FFF7B6FFD320FFF7F3
:10486000B3FF0020FFF7B0FFD520FFF7ADFFF0202A
:10487000FFF7AAFFD920FFF7A7FF2220FFF7A4FF29
:10488000DA20FFF7A1FF1220FFF79EFFDB20FFF7E2
:104890009BFF2020FFF798FF8D20FFF795FF142046
:1048A000FFF792FFAF20FFF78FFF002000F010F816
:1048B00000F030F8054B00221A80044B00225A8089
:1048C000024B01225A710123184680BD8006002048
:1048D00080B485B000AF0346FB710023FB600DE0A0
:1048E000FB79002B01D1002100E0FF21084AFB6881
:1048F00013440A461A70FB680133FB60FB68B3F58A
:10490000806FEDD300BF1437BD4680BC704700BF39
:104910008002002080B586B004AF0023FB711DE04B
:10492000FB79503BDBB21846FFF74EFF0020FFF744
:104930004BFF1020FFF748FFFB79DB010B4A1344C4
:104940006422029280220192009301234022782166
:104950000748FCF79BFBFB790133FB71FB79072BC5
:10496000DED900BF0837BD4680BD00BF80020020F1
:104970009806002080B483B000AF0346FB710B465D
:10498000BB7113467B7197F90730002B48DBBB796D
:104990003F2B45D8254B1B79002B06D07B79002B6C
:1049A0000CBF01230023DBB27B717B79012B1AD171
:1049B000FA79BB79DB08D8B20346DB011344F979F5
:1049C0000246D2010A441A498A5C51B2BA7902F00D
:1049D0000702012000FA02F252B20A4352B2D1B2E7
:1049E000134AD1541DE0FA79BB79DB08D8B20346EB
:1049F000DB011344F9790246D2010A440C498A5C6E
:104A000051B2BA7902F00702012000FA02F252B262
:104A1000D24352B20A4052B2D1B2054AD15400E058
:104A200000BF0C37BD4680BC704700BF8006002029
:104A30008002002090B589B000AF0446381D80E8A0
:104A400006001A462346FB731346BB73394B1B887B
:104A50001A463B7913447F2B06DC364B5B881A469B
:104A60007B7913443F2B01DD00235FE00023FB61D2
:104A70004DE0BA6897F90F30203B797901FB03F3D9
:104A80001946FB690B445B0013441B887B610023C0
:104A9000BB6134E07A69BB6902FA03F303F40043B3
:104AA000002B12D0234B1B88DAB2BB69DBB2134454
:104AB000D8B2204B5B88DAB2FB69DBB21344DBB2BD
:104AC000BA7B1946FFF756FF16E01A4B1B88DAB27D
:104AD000BB69DBB21344D8B2164B5B88DAB2FB6910
:104AE000DBB21344D9B2BB7B002B0CBF01230023E4
:104AF000DBB21A46FFF73EFFBB690133BB613B796E
:104B00001A46BB699A42C5D8FB690133FB617B79C0
:104B10001A46FB699A42ACD8064B1A883B799BB27D
:104B200013449AB2034B1A8097F90F301846243772
:104B3000BD4690BD8006002080B584B000AFF8600F
:104B4000381D80E80600FB7015E0FB6893F9000053
:104B5000FB783A1D06CAFFF76DFF03461A46FB684D
:104B600093F900309A4203D0FB6893F900300AE0D1
:104B7000FB680133FB60FB6893F90030002BE4D144
:104B8000FB6893F9003018461037BD4680BD000021
:104B900080B483B000AF03460A46FB711346BB7175
:104BA000FB799AB2054B1A80BB799AB2034B5A80B3
:104BB00000BF0C37BD4680BC704700BF8006002098
:104BC00080B582B000AF1E4A1D4B9B6943F00103C4
:104BD00093611B4B9B6903F001037B607B6807209B
:104BE000FBF7BCFD002200216FF00B00FBF7D6FDA8
:104BF000002200216FF00A00FBF7D0FD0022002107
:104C00006FF00900FBF7CAFD002200216FF00400DD
:104C1000FBF7C4FD002200216FF00300FBF7BEFD8F
:104C2000002200216FF00100FBF7B8FD00220021F7
:104C30004FF0FF30FBF7B2FD00BF0837BD4680BD27
:104C40000010024080B588B000AF78607B681B68B8
:104C5000114A93421CD14FF44073FB6012233B6115
:104C600000237B610323BB610423FB6107F10C0379
:104C700019460A48FBF716FE094A094BDB6943F45B
:104C80000013D361064BDB6903F40013BB60BB6800
:104C900000BF2037BD4680BD0054004000040048DE
:104CA0000010024080B500AFFBF75CFCFBF7EEFDA7
:104CB00000BF80BD80B500AF1020FCF7B5F800BF85
:104CC00080BD80B500AF4FF48070FCF7ADF800BF39
:104CD00080BD80B500AF4FF40050FCF7A5F800BFD1
:104CE00080BD000081F0004102E000BF83F000437E
:104CF00030B54FEA41044FEA430594EA050F08BF77
:104D000090EA020F1FBF54EA000C55EA020C7FEA3A
:104D1000645C7FEA655C00F0E2804FEA5454D4EBB7
:104D20005555B8BF6D420CDD2C4480EA020281EA81
:104D3000030382EA000083EA010180EA020281EAB9
:104D40000303362D88BF30BD11F0004F4FEA01310B
:104D50004FF4801C4CEA113102D0404261EB41011A
:104D600013F0004F4FEA03334CEA133302D05242A0
:104D700063EB430394EA050F00F0A780A4F101045C
:104D8000D5F1200E0DDB02FA0EFC22FA05F2801896
:104D900041F1000103FA0EF2801843FA05F359417C
:104DA0000EE0A5F120050EF1200E012A03FA0EFCFB
:104DB00028BF4CF0020C43FA05F3C01851EBE37125
:104DC00001F0004507D54FF0000EDCF1000C7EEB42
:104DD00000006EEB0101B1F5801F1BD3B1F5001F80
:104DE0000CD349085FEA30004FEA3C0C04F101049F
:104DF0004FEA445212F5800F80F09A80BCF1004FC8
:104E000008BF5FEA500C50F1000041EB045141EA49
:104E1000050130BD5FEA4C0C404141EB010111F44A
:104E2000801FA4F10104E9D191F0000F04BF0146F5
:104E30000020B1FA81F308BF2033A3F10B03B3F1D3
:104E400020020CDA0C3208DD02F1140CC2F10C0263
:104E500001FA0CF021FA02F10CE002F11402D8BFC1
:104E6000C2F1200C01FA02F120FA0CFCDCBF41EA8D
:104E70000C019040E41AA2BF01EB0451294330BD5C
:104E80006FEA04041F3C1CDA0C340EDC04F1140439
:104E9000C4F1200220FA04F001FA02F340EA030010
:104EA00021FA04F345EA030130BDC4F10C04C4F156
:104EB000200220FA02F001FA04F340EA0300294636
:104EC00030BD21FA04F0294630BD94F0000F83F480
:104ED000801306BF81F480110134013D4EE77FEA63
:104EE000645C18BF7FEA655C29D094EA050F08BFAF
:104EF00090EA020F05D054EA000C04BF1946104690
:104F000030BD91EA030F1EBF0021002030BD5FEAD3
:104F1000545C05D14000494128BF41F0004130BDFB
:104F200014F580043CBF01F5801130BD01F000454F
:104F300045F0FE4141F470014FF0000030BD7FEAC2
:104F4000645C1ABF194610467FEA655C1CBF0B46BD
:104F5000024650EA013406BF52EA033591EA030FD4
:104F600041F4002130BD00BF90F0000F04BF0021CC
:104F7000704730B54FF4806404F132044FF00005FF
:104F80004FF0000150E700BF90F0000F04BF002178
:104F9000704730B54FF4806404F1320410F00045DE
:104FA00048BF40424FF000013EE700BF42004FEAD9
:104FB000E2014FEA31014FEA02701FBF12F07F4356
:104FC00093F07F4F81F06051704792F0000F14BF53
:104FD00093F07F4F704730B54FF4607401F0004597
:104FE00021F0004120E700BF50EA010208BF7047EE
:104FF00030B54FF000050AE050EA010208BF7047E3
:1050000030B511F0004502D5404261EB41014FF44B
:10501000806404F132045FEA915C3FF4DCAE4FF04F
:1050200003025FEADC0C18BF03325FEADC0C18BF36
:10503000033202EBDC02C2F1200300FA03FC20FA87
:1050400002F001FA03FE40EA0E0021FA02F11444D4
:10505000C1E600BF70B54FF0FF0C4CF4E06C1CEAE9
:1050600011541DBF1CEA135594EA0C0F95EA0C0F5E
:1050700000F0DEF82C4481EA030621EA4C5123EAD1
:105080004C5350EA013518BF52EA033541F4801100
:1050900043F4801338D0A0FB02CE4FF00005E1FBB3
:1050A00002E506F00042E0FB03E54FF00006E1FBFD
:1050B00003569CF0000F18BF4EF0010EA4F1FF0440
:1050C000B6F5007F64F5407404D25FEA4E0E6D4180
:1050D00046EB060642EAC62141EA55514FEAC52091
:1050E00040EA5E504FEACE2EB4F1FD0C88BFBCF50D
:1050F000E06F1ED8BEF1004F08BF5FEA500E50F1BE
:10510000000041EB045170BD06F0004646EA010183
:1051100040EA020081EA0301B4EB5C04C2BFD4EBB5
:105120000C0541EA045170BD41F480114FF0000EAE
:10513000013C00F3AB8014F1360FDEBF002001F01C
:10514000004170BDC4F10004203C35DA0C341BDC96
:1051500004F11404C4F1200500FA05F320FA04F068
:1051600001FA05F240EA020001F0004221F000419C
:1051700010EBD37021FA04F642EB06015EEA430E0F
:1051800008BF20EAD37070BDC4F10C04C4F120053F
:1051900000FA04F320FA05F001FA04F240EA0200F2
:1051A00001F0004110EBD37041F100015EEA430EC3
:1051B00008BF20EAD37070BDC4F1200500FA05F2E3
:1051C0004EEA020E20FA04F301FA05F243EA020362
:1051D00021FA04F001F0004121FA04F220EA020071
:1051E00000EBD3705EEA430E08BF20EAD37070BDB7
:1051F00094F0000F0FD101F00046400041EB010197
:1052000011F4801F08BF013CF7D041EA060195F078
:10521000000F18BF704703F00046520043EB030332
:1052200013F4801F08BF013DF7D043EA060370471F
:1052300094EA0C0F0CEA135518BF95EA0C0F0CD02A
:1052400050EA410618BF52EA4306D1D181EA030170
:1052500001F000414FF0000070BD50EA410606BF6A
:105260001046194652EA430619D094EA0C0F02D1AF
:1052700050EA013613D195EA0C0F05D152EA0336F4
:105280001CBF104619460AD181EA030101F0004112
:1052900041F0FE4141F470014FF0000070BD41F05B
:1052A000FE4141F4780170BD70B54FF0FF0C4CF435
:1052B000E06C1CEA11541DBF1CEA135594EA0C0F54
:1052C00095EA0C0F00F0A7F8A4EB050481EA030EA1
:1052D00052EA03354FEA013100F088804FEA033388
:1052E0004FF0805545EA131343EA12634FEA022256
:1052F00045EA111545EA10654FEA00260EF0004117
:105300009D4208BF964244F1FD0404F5407402D268
:105310005B084FEA3202B61A65EB03055B084FEAF9
:1053200032024FF480104FF4002CB6EB020E75EBF6
:10533000030E22BFB61A754640EA0C005B084FEA1E
:105340003202B6EB020E75EB030E22BFB61A75469B
:1053500040EA5C005B084FEA3202B6EB020E75EBE6
:10536000030E22BFB61A754640EA9C005B084FEA5E
:105370003202B6EB020E75EB030E22BFB61A75466B
:1053800040EADC0055EA060E18D04FEA051545EA5A
:1053900016754FEA06164FEAC30343EA52734FEA03
:1053A000C2025FEA1C1CC0D111F4801F0BD141EA7C
:1053B00000014FF000004FF0004CB6E711F4801FE1
:1053C00004BF01430020B4F1FD0C88BFBCF5E06FC1
:1053D0003FF6AFAEB5EB030C04BFB6EB020C5FEAD1
:1053E000500C50F1000041EB045170BD0EF0004E26
:1053F0004EEA113114EB5C04C2BFD4EB0C0541EA58
:10540000045170BD41F480114FF0000E013C90E654
:1054100045EA060E8DE60CEA135594EA0C0F08BF18
:1054200095EA0C0F3FF43BAF94EA0C0F0AD150EA17
:1054300001347FF434AF95EA0C0F7FF425AF1046AA
:1054400019462CE795EA0C0F06D152EA03353FF4D2
:10545000FDAE1046194622E750EA410618BF52EA4F
:1054600043067FF4C5AE50EA41047FF40DAF52EA23
:1054700043057FF4EBAE12E74FEA4102B2F1E0439D
:1054800024BFB3F5001CDCF1FE5C0DD901F0004C2B
:105490004FEAC0024CEA5070B2F1004F40EB83007B
:1054A00008BF20F00100704711F0804F21D113F1A7
:1054B0003872BCBF01F00040704741F480114FEAE0
:1054C0005252C2F11802C2F1200C10FA0CF320FA69
:1054D00002F018BF40F001004FEAC1234FEAD32386
:1054E00003FA0CFC40EA0C0023FA02F34FEA4303F0
:1054F000CCE77FEA625307D150EA01331EBF4FF079
:10550000FE4040F44000704701F0004040F0FE4093
:1055100040F40000704700BF4FF0FF0C1CEAD0526F
:105520001EBF1CEAD15392EA0C0F93EA0C0F6FD006
:105530001A4480EA010C400218BF5FEA41211ED0E4
:105540004FF0006343EA501043EA5111A0FB0131D0
:105550000CF00040B1F5000F3EBF490041EAD371A5
:105560005B0040EA010062F17F02FD2A1DD8B3F121
:10557000004F40EBC25008BF20F00100704790F090
:10558000000F0CF0004C08BF49024CEA502040EAE2
:1055900051207F3AC2BFD2F1FF0340EAC2507047A8
:1055A00040F400004FF00003013A5DDC12F1190FE6
:1055B000DCBF00F000407047C2F10002410021FA58
:1055C00002F1C2F1200200FA02FC5FEA310040F170
:1055D000000053EA4C0308BF20EADC70704792F0E9
:1055E000000F00F0004C02BF400010F4000F013A21
:1055F000F9D040EA0C0093F0000F01F0004C02BF1C
:10560000490011F4000F013BF9D041EA0C018FE78A
:105610000CEAD15392EA0C0F18BF93EA0C0F0AD090
:1056200030F0004C18BF31F0004CD8D180EA0100B6
:1056300000F00040704790F0000F17BF90F0004F4F
:10564000084691F0000F91F0004F14D092EA0C0F31
:1056500001D142020FD193EA0C0F03D14B0218BFC4
:10566000084608D180EA010000F0004040F0FE400A
:1056700040F40000704740F0FE4040F440007047A6
:105680004FF0FF0C1CEAD0521EBF1CEAD15392EA25
:105690000C0F93EA0C0F69D0A2EB030280EA010C15
:1056A00049024FEA402037D04FF0805343EA1111AE
:1056B00043EA10130CF000408B4238BF5B0042F10C
:1056C0007D024FF4000C8B4224BF5B1A40EA0C00B1
:1056D000B3EB510F24BFA3EB510340EA5C00B3EBE3
:1056E000910F24BFA3EB910340EA9C00B3EBD10FD1
:1056F00024BFA3EBD10340EADC001B0118BF5FEA23
:105700001C1CE0D1FD2A3FF650AF8B4240EBC2504B
:1057100008BF20F0010070470CF0004C4CEA50200C
:105720007F32C2BFD2F1FF0340EAC250704740F45B
:1057300000004FF00003013A37E792F0000F00F04D
:10574000004C02BF400010F4000F013AF9D040EACB
:105750000C0093F0000F01F0004C02BF490011F45F
:10576000000F013BF9D041EA0C0195E70CEAD15357
:1057700092EA0C0F08D142027FF47DAF93EA0C0F3E
:105780007FF470AF084676E793EA0C0F04D14B0222
:105790003FF44CAF08466EE730F0004C18BF31F0D4
:1057A000004CCAD130F000427FF45CAF31F00043CE
:1057B0007FF43CAF5FE700BF014B1868704700BF44
:1057C000200000202DE9F04788B0002B149F12998B
:1057D000109DDDF84CA01E4627F02007BBBF03F14B
:1057E00000431E4600232D23462F14460B7004D081
:1057F000452F00D10135022300E0032307AA0492BC
:1058000006AA03928DE828042246334600F02CFDB8
:10581000472F804602D1119BDB0726D5462F08EB88
:10582000050911D198F80030302B0AD1002200234D
:105830002046314602F012F918B9C5F10105CAF83F
:105840000050DAF800309944002200232046314607
:1058500002F004F938B93022079B994505D9591C43
:1058600007911A70F8E7CDF81C90079B159AA3EBE7
:1058700008034046136008B0BDE8F087F7B503465B
:105880000029B8BF494203F8022BB4BF2D222B22B6
:105890000929427020DD0DF1070217460A2691FB07
:1058A000F6F506FB15113031092D02F8011C02F145
:1058B000FF34294609DC3031023A04F8011CBA42AF
:1058C0001C4604D3201A03B0F0BD2246E7E712F8C5
:1058D000011B03F8011BF2E730221C46114404F8B7
:1058E000022B5970EEE700002DE9F04F91B00C4605
:1058F0001A9F93461E46054601F088FA03680993ED
:10590000184600F0E3FB00230E933B680A90073330
:1059100023F0070303F1080294F81880D4F800A0DC
:105920003A60D3E90023C4E91223D4F84C90A76C61
:1059300029F000430B934FF0FF32A64B0B993846EA
:1059400002F0BEF8002840F0F7814FF0FF32A14B83
:105950000B99384602F096F8002840F0ED810022BD
:1059600000233846494602F083F810B12D2384F80D
:105970004330994B994FB8F1470F98BF1F46032307
:1059800023612AF0040323604FF0000900965B4670
:105990000FAA2146284600F0DFF9013040F09A8036
:1059A0004FF0FF3011B0BDE8F08F6268531C0EA8B5
:1059B0004AF480630DF1340E41D106226260236007
:1059C00000210DF133020193636805900292009368
:1059D0003A464B460691CDF81080CDF80CE02846AB
:1059E000FFF7F0FE08F0DF03472B074609D10D9BB8
:1059F000D81C02DB6268934259DDA8F102085FFA05
:105A000088F8B8F1650F0D9936D80139424604F18E
:105A100050000D91FFF732FF0E9A8318012A81463C
:105A2000236102DC2268D10701D5013323619DF88F
:105A30003330002BAAD02D2384F84330A6E7B8F1E9
:105A4000670F02D0B8F1470FB9D19AB10021069182
:105A50000DF133018DE80C00236005903A46CDF836
:105A60001080CDF80CE002914B462846FFF7AAFEC5
:105A70000746BCE70122A1E7B8F1660F19D100295A
:105A800063680CDD216113B92268D20702D50133A6
:105A90000B4423610D9BA3654FF00009C7E713B9C1
:105AA0002268D00701D50233F3E70123F1E74FF075
:105AB00067080D9B0E9A934205DB22682361D1078C
:105AC000E8D50133E5E7002BD4BFC3F1020301237E
:105AD0001344DEE723685A0507D423693A4659463A
